{
  "contractName": "DS",
  "abi": [
    {
      "inputs": [
        {
          "internalType": "uint256",
          "name": "price",
          "type": "uint256"
        },
        {
          "internalType": "contract Token",
          "name": "token",
          "type": "address"
        }
      ],
      "payable": false,
      "stateMutability": "nonpayable",
      "type": "constructor"
    },
    {
      "anonymous": false,
      "inputs": [
        {
          "indexed": false,
          "internalType": "address",
          "name": "investor",
          "type": "address"
        },
        {
          "indexed": false,
          "internalType": "uint256",
          "name": "amountWei",
          "type": "uint256"
        },
        {
          "indexed": false,
          "internalType": "uint256",
          "name": "timestamp",
          "type": "uint256"
        }
      ],
      "name": "EtherBurned",
      "type": "event"
    },
    {
      "anonymous": false,
      "inputs": [
        {
          "indexed": false,
          "internalType": "string",
          "name": "description",
          "type": "string"
        }
      ],
      "name": "LogNewQuery",
      "type": "event"
    },
    {
      "anonymous": false,
      "inputs": [
        {
          "indexed": false,
          "internalType": "uint256",
          "name": "price",
          "type": "uint256"
        }
      ],
      "name": "LogNewTicket",
      "type": "event"
    },
    {
      "anonymous": false,
      "inputs": [
        {
          "indexed": false,
          "internalType": "address",
          "name": "investor",
          "type": "address"
        },
        {
          "indexed": false,
          "internalType": "uint256",
          "name": "amountWei",
          "type": "uint256"
        },
        {
          "indexed": false,
          "internalType": "uint256",
          "name": "amountToken",
          "type": "uint256"
        },
        {
          "indexed": false,
          "internalType": "uint256",
          "name": "id",
          "type": "uint256"
        },
        {
          "indexed": false,
          "internalType": "uint256",
          "name": "price",
          "type": "uint256"
        },
        {
          "indexed": false,
          "internalType": "uint256",
          "name": "timestamp",
          "type": "uint256"
        }
      ],
      "name": "TokenPurchase",
      "type": "event"
    },
    {
      "payable": true,
      "stateMutability": "payable",
      "type": "fallback"
    },
    {
      "constant": false,
      "inputs": [
        {
          "internalType": "bytes32",
          "name": "_myid",
          "type": "bytes32"
        },
        {
          "internalType": "string",
          "name": "_result",
          "type": "string"
        }
      ],
      "name": "__callback",
      "outputs": [],
      "payable": false,
      "stateMutability": "nonpayable",
      "type": "function"
    },
    {
      "constant": false,
      "inputs": [
        {
          "internalType": "bytes32",
          "name": "_myid",
          "type": "bytes32"
        },
        {
          "internalType": "string",
          "name": "_result",
          "type": "string"
        },
        {
          "internalType": "bytes",
          "name": "_proof",
          "type": "bytes"
        }
      ],
      "name": "__callback",
      "outputs": [],
      "payable": false,
      "stateMutability": "nonpayable",
      "type": "function"
    },
    {
      "constant": false,
      "inputs": [],
      "name": "update",
      "outputs": [],
      "payable": true,
      "stateMutability": "payable",
      "type": "function"
    },
    {
      "constant": true,
      "inputs": [],
      "name": "token",
      "outputs": [
        {
          "internalType": "contract Token",
          "name": "",
          "type": "address"
        }
      ],
      "payable": false,
      "stateMutability": "view",
      "type": "function"
    },
    {
      "constant": true,
      "inputs": [],
      "name": "price",
      "outputs": [
        {
          "internalType": "uint256",
          "name": "",
          "type": "uint256"
        }
      ],
      "payable": false,
      "stateMutability": "view",
      "type": "function"
    },
    {
      "constant": true,
      "inputs": [],
      "name": "weiBurned",
      "outputs": [
        {
          "internalType": "uint256",
          "name": "",
          "type": "uint256"
        }
      ],
      "payable": false,
      "stateMutability": "view",
      "type": "function"
    },
    {
      "constant": true,
      "inputs": [],
      "name": "tradeId",
      "outputs": [
        {
          "internalType": "uint256",
          "name": "",
          "type": "uint256"
        }
      ],
      "payable": false,
      "stateMutability": "view",
      "type": "function"
    },
    {
      "constant": false,
      "inputs": [],
      "name": "buyTokens",
      "outputs": [],
      "payable": true,
      "stateMutability": "payable",
      "type": "function"
    }
  ],
  "bytecode": "0x60806040523480156200001157600080fd5b50604051620046a6380380620046a6833981810160405260408110156200003757600080fd5b810190808051906020019092919080519060200190929190505050600160008190555060008214156200006957600080fd5b600073ffffffffffffffffffffffffffffffffffffffff168173ffffffffffffffffffffffffffffffffffffffff161415620000f1576040517f08c379a000000000000000000000000000000000000000000000000000000000815260040180806020018281038252602e81526020018062004614602e913960400191505060405180910390fd5b8160078190555080600660006101000a81548173ffffffffffffffffffffffffffffffffffffffff021916908373ffffffffffffffffffffffffffffffffffffffff16021790555062000154600160f81b604060f81b176200016c60201b60201c565b62000164620004d260201b60201c565b505062001e56565b600073ffffffffffffffffffffffffffffffffffffffff16600260009054906101000a900473ffffffffffffffffffffffffffffffffffffffff1673ffffffffffffffffffffffffffffffffffffffff161480620001fc57506000620001fa600260009054906101000a900473ffffffffffffffffffffffffffffffffffffffff166200063360201b60201c565b145b1562000216576200021460006200063e60201b60201c565b505b600260009054906101000a900473ffffffffffffffffffffffffffffffffffffffff1673ffffffffffffffffffffffffffffffffffffffff166338cc48316040518163ffffffff1660e01b8152600401602060405180830381600087803b1580156200028157600080fd5b505af115801562000296573d6000803e3d6000fd5b505050506040513d6020811015620002ad57600080fd5b810190808051906020019092919050505073ffffffffffffffffffffffffffffffffffffffff16600160009054906101000a900473ffffffffffffffffffffffffffffffffffffffff1673ffffffffffffffffffffffffffffffffffffffff1614620003fc57600260009054906101000a900473ffffffffffffffffffffffffffffffffffffffff1673ffffffffffffffffffffffffffffffffffffffff166338cc48316040518163ffffffff1660e01b8152600401602060405180830381600087803b1580156200037e57600080fd5b505af115801562000393573d6000803e3d6000fd5b505050506040513d6020811015620003aa57600080fd5b8101908080519060200190929190505050600160006101000a81548173ffffffffffffffffffffffffffffffffffffffff021916908373ffffffffffffffffffffffffffffffffffffffff1602179055505b600160009054906101000a900473ffffffffffffffffffffffffffffffffffffffff1673ffffffffffffffffffffffffffffffffffffffff1663688dcfd7826040518263ffffffff1660e01b815260040180827effffffffffffffffffffffffffffffffffffffffffffffffffffffffffffff19167effffffffffffffffffffffffffffffffffffffffffffffffffffffffffffff19168152602001915050600060405180830381600087803b158015620004b657600080fd5b505af1158015620004cb573d6000803e3d6000fd5b5050505050565b47620005196040518060400160405280600381526020017f55524c00000000000000000000000000000000000000000000000000000000008152506200065760201b60201c565b111562000572577f746f97619dd4e795da5586af48fcbd8a87f2860948dec93277b5b67b2f105cab60405180806020018281038252604c815260200180620045c8604c913960600191505060405180910390a162000631565b7f746f97619dd4e795da5586af48fcbd8a87f2860948dec93277b5b67b2f105cab604051808060200182810382526036815260200180620046706036913960400191505060405180910390a16200062f6102586040518060400160405280600b81526020017f636f6d7075746174696f6e00000000000000000000000000000000000000000081525060405180602001604052806040518060600160405280602e815260200162004642602e913981525062000a0a60201b60201c565b505b565b6000813b9050919050565b60006200065062000d2060201b60201c565b9050919050565b60008073ffffffffffffffffffffffffffffffffffffffff16600260009054906101000a900473ffffffffffffffffffffffffffffffffffffffff1673ffffffffffffffffffffffffffffffffffffffff161480620006e857506000620006e6600260009054906101000a900473ffffffffffffffffffffffffffffffffffffffff166200063360201b60201c565b145b1562000702576200070060006200063e60201b60201c565b505b600260009054906101000a900473ffffffffffffffffffffffffffffffffffffffff1673ffffffffffffffffffffffffffffffffffffffff166338cc48316040518163ffffffff1660e01b8152600401602060405180830381600087803b1580156200076d57600080fd5b505af115801562000782573d6000803e3d6000fd5b505050506040513d60208110156200079957600080fd5b810190808051906020019092919050505073ffffffffffffffffffffffffffffffffffffffff16600160009054906101000a900473ffffffffffffffffffffffffffffffffffffffff1673ffffffffffffffffffffffffffffffffffffffff1614620008e857600260009054906101000a900473ffffffffffffffffffffffffffffffffffffffff1673ffffffffffffffffffffffffffffffffffffffff166338cc48316040518163ffffffff1660e01b8152600401602060405180830381600087803b1580156200086a57600080fd5b505af11580156200087f573d6000803e3d6000fd5b505050506040513d60208110156200089657600080fd5b8101908080519060200190929190505050600160006101000a81548173ffffffffffffffffffffffffffffffffffffffff021916908373ffffffffffffffffffffffffffffffffffffffff1602179055505b600160009054906101000a900473ffffffffffffffffffffffffffffffffffffffff1673ffffffffffffffffffffffffffffffffffffffff1663524f3889836040518263ffffffff1660e01b81526004018080602001828103825283818151815260200191508051906020019080838360005b83811015620009785780820151818401526020810190506200095b565b50505050905090810190601f168015620009a65780820380516001836020036101000a031916815260200191505b5092505050602060405180830381600087803b158015620009c657600080fd5b505af1158015620009db573d6000803e3d6000fd5b505050506040513d6020811015620009f257600080fd5b81019080805190602001909291905050509050919050565b60008073ffffffffffffffffffffffffffffffffffffffff16600260009054906101000a900473ffffffffffffffffffffffffffffffffffffffff1673ffffffffffffffffffffffffffffffffffffffff16148062000a9b5750600062000a99600260009054906101000a900473ffffffffffffffffffffffffffffffffffffffff166200063360201b60201c565b145b1562000ab55762000ab360006200063e60201b60201c565b505b600260009054906101000a900473ffffffffffffffffffffffffffffffffffffffff1673ffffffffffffffffffffffffffffffffffffffff166338cc48316040518163ffffffff1660e01b8152600401602060405180830381600087803b15801562000b2057600080fd5b505af115801562000b35573d6000803e3d6000fd5b505050506040513d602081101562000b4c57600080fd5b810190808051906020019092919050505073ffffffffffffffffffffffffffffffffffffffff16600160009054906101000a900473ffffffffffffffffffffffffffffffffffffffff1673ffffffffffffffffffffffffffffffffffffffff161462000c9b57600260009054906101000a900473ffffffffffffffffffffffffffffffffffffffff1673ffffffffffffffffffffffffffffffffffffffff166338cc48316040518163ffffffff1660e01b8152600401602060405180830381600087803b15801562000c1d57600080fd5b505af115801562000c32573d6000803e3d6000fd5b505050506040513d602081101562000c4957600080fd5b8101908080519060200190929190505050600160006101000a81548173ffffffffffffffffffffffffffffffffffffffff021916908373ffffffffffffffffffffffffffffffffffffffff1602179055505b6060600160405190808252806020026020018201604052801562000cd457816020015b606081526020019060019003908162000cbe5790505b5090508260006001811062000ce557fe5b60200201518160008151811062000cf857fe5b602002602001018190525062000d16858583620012ef60201b60201c565b9150509392505050565b60008062000d48731d3b2638a7cc9f2cb3d298a3da7a90b67e5506ed6200063360201b60201c565b111562000df457731d3b2638a7cc9f2cb3d298a3da7a90b67e5506ed600260006101000a81548173ffffffffffffffffffffffffffffffffffffffff021916908373ffffffffffffffffffffffffffffffffffffffff16021790555062000dea6040518060400160405280600b81526020017f6574685f6d61696e6e65740000000000000000000000000000000000000000008152506200187960201b60201c565b60019050620012ec565b600062000e1b73c03a2615d5efaf5f49f60b7bb6583eaec212fdf16200063360201b60201c565b111562000ec75773c03a2615d5efaf5f49f60b7bb6583eaec212fdf1600260006101000a81548173ffffffffffffffffffffffffffffffffffffffff021916908373ffffffffffffffffffffffffffffffffffffffff16021790555062000ebd6040518060400160405280600c81526020017f6574685f726f707374656e3300000000000000000000000000000000000000008152506200187960201b60201c565b60019050620012ec565b600062000eee73b7a07bcf2ba2f2703b24c0691b5278999c59ac7e6200063360201b60201c565b111562000f9a5773b7a07bcf2ba2f2703b24c0691b5278999c59ac7e600260006101000a81548173ffffffffffffffffffffffffffffffffffffffff021916908373ffffffffffffffffffffffffffffffffffffffff16021790555062000f906040518060400160405280600981526020017f6574685f6b6f76616e00000000000000000000000000000000000000000000008152506200187960201b60201c565b60019050620012ec565b600062000fc173146500cfd35b22e4a392fe0adc06de1a1368ed486200063360201b60201c565b11156200106d5773146500cfd35b22e4a392fe0adc06de1a1368ed48600260006101000a81548173ffffffffffffffffffffffffffffffffffffffff021916908373ffffffffffffffffffffffffffffffffffffffff160217905550620010636040518060400160405280600b81526020017f6574685f72696e6b6562790000000000000000000000000000000000000000008152506200187960201b60201c565b60019050620012ec565b60006200109473a2998efd205fb9d4b4963afb70778d6354ad3a416200063360201b60201c565b1115620011405773a2998efd205fb9d4b4963afb70778d6354ad3a41600260006101000a81548173ffffffffffffffffffffffffffffffffffffffff021916908373ffffffffffffffffffffffffffffffffffffffff160217905550620011366040518060400160405280600a81526020017f6574685f676f65726c69000000000000000000000000000000000000000000008152506200187960201b60201c565b60019050620012ec565b600062001167736f485c8bf6fc43ea212e93bbf8ce046c7f1cb4756200063360201b60201c565b1115620011cd57736f485c8bf6fc43ea212e93bbf8ce046c7f1cb475600260006101000a81548173ffffffffffffffffffffffffffffffffffffffff021916908373ffffffffffffffffffffffffffffffffffffffff16021790555060019050620012ec565b6000620011f47320e12a1f859b3feae5fb2a0a32c18f5a65555bbf6200063360201b60201c565b11156200125a577320e12a1f859b3feae5fb2a0a32c18f5a65555bbf600260006101000a81548173ffffffffffffffffffffffffffffffffffffffff021916908373ffffffffffffffffffffffffffffffffffffffff16021790555060019050620012ec565b6000620012817351efaf4c8b3c9afbd5ab9f4bbc82784ab6ef8faa6200063360201b60201c565b1115620012e7577351efaf4c8b3c9afbd5ab9f4bbc82784ab6ef8faa600260006101000a81548173ffffffffffffffffffffffffffffffffffffffff021916908373ffffffffffffffffffffffffffffffffffffffff16021790555060019050620012ec565b600090505b90565b60008073ffffffffffffffffffffffffffffffffffffffff16600260009054906101000a900473ffffffffffffffffffffffffffffffffffffffff1673ffffffffffffffffffffffffffffffffffffffff16148062001380575060006200137e600260009054906101000a900473ffffffffffffffffffffffffffffffffffffffff166200063360201b60201c565b145b156200139a576200139860006200063e60201b60201c565b505b600260009054906101000a900473ffffffffffffffffffffffffffffffffffffffff1673ffffffffffffffffffffffffffffffffffffffff166338cc48316040518163ffffffff1660e01b8152600401602060405180830381600087803b1580156200140557600080fd5b505af11580156200141a573d6000803e3d6000fd5b505050506040513d60208110156200143157600080fd5b810190808051906020019092919050505073ffffffffffffffffffffffffffffffffffffffff16600160009054906101000a900473ffffffffffffffffffffffffffffffffffffffff1673ffffffffffffffffffffffffffffffffffffffff16146200158057600260009054906101000a900473ffffffffffffffffffffffffffffffffffffffff1673ffffffffffffffffffffffffffffffffffffffff166338cc48316040518163ffffffff1660e01b8152600401602060405180830381600087803b1580156200150257600080fd5b505af115801562001517573d6000803e3d6000fd5b505050506040513d60208110156200152e57600080fd5b8101908080519060200190929190505050600160006101000a81548173ffffffffffffffffffffffffffffffffffffffff021916908373ffffffffffffffffffffffffffffffffffffffff1602179055505b6000600160009054906101000a900473ffffffffffffffffffffffffffffffffffffffff1673ffffffffffffffffffffffffffffffffffffffff1663524f3889856040518263ffffffff1660e01b81526004018080602001828103825283818151815260200191508051906020019080838360005b8381101562001612578082015181840152602081019050620015f5565b50505050905090810190601f168015620016405780820380516001836020036101000a031916815260200191505b5092505050602060405180830381600087803b1580156200166057600080fd5b505af115801562001675573d6000803e3d6000fd5b505050506040513d60208110156200168c57600080fd5b8101908080519060200190929190505050905062030d403a02670de0b6b3a764000001811115620016c4576000801b91505062001872565b6060620016d7846200189560201b60201c565b9050600160009054906101000a900473ffffffffffffffffffffffffffffffffffffffff1673ffffffffffffffffffffffffffffffffffffffff166383eed3d5838888856040518563ffffffff1660e01b8152600401808481526020018060200180602001838103835285818151815260200191508051906020019080838360005b838110156200177657808201518184015260208101905062001759565b50505050905090810190601f168015620017a45780820380516001836020036101000a031916815260200191505b50838103825284818151815260200191508051906020019080838360005b83811015620017df578082015181840152602081019050620017c2565b50505050905090810190601f1680156200180d5780820380516001836020036101000a031916815260200191505b50955050505050506020604051808303818588803b1580156200182f57600080fd5b505af115801562001844573d6000803e3d6000fd5b50505050506040513d60208110156200185c57600080fd5b8101908080519060200190929190505050925050505b9392505050565b80600390805190602001906200189192919062001d8d565b5050565b6060620018a76200195060201b60201c565b620018b162001e14565b620018ca816104006200195c60201b620021c91760201c565b620018e081620019a960201b620022131760201c565b60008090505b83518110156200192c576200191e8482815181106200190157fe5b602002602001015183620019bf60201b620022211790919060201c565b8080600101915050620018e6565b506200194381620019f360201b620022461760201c565b8060000151915050919050565b60405180590338823950565b60008190506000602082816200196e57fe5b06146200198957602081816200198057fe5b06602003810190505b808360200181815250506040518084526000815281810160405250505050565b620019bc81600462001a0960201b60201c565b50565b620019d4826003835162001a3160201b60201c565b620019ee818362001bb960201b620023b51790919060201c565b505050565b62001a0681600762001a0960201b60201c565b50565b62001a2d601f60058360ff16901b178362001c7960201b620024601790919060201c565b5050565b6017811162001a665762001a608160058460ff16901b60ff16178462001c7960201b620024601790919060201c565b62001bb4565b60ff811162001ab75762001a93601860058460ff16901b178462001c7960201b620024601790919060201c565b62001ab08160018562001cc260201b620024a0179092919060201c565b5062001bb3565b61ffff811162001b095762001ae5601960058460ff16901b178462001c7960201b620024601790919060201c565b62001b028160028562001cc260201b620024a0179092919060201c565b5062001bb2565b63ffffffff811162001b5d5762001b39601a60058460ff16901b178462001c7960201b620024601790919060201c565b62001b568160048562001cc260201b620024a0179092919060201c565b5062001bb1565b67ffffffffffffffff811162001bb05762001b91601b60058460ff16901b178462001c7960201b620024601790919060201c565b62001bae8160088562001cc260201b620024a0179092919060201c565b505b5b5b5b5b505050565b62001bc362001e14565b8260200151836000015151835101111562001c045762001c0383600262001bf68660200151865162001d3c60201b60201c565b0262001d5a60201b60201c565b5b60008060008451905085518051602081830101945086518101825260208701935050505b6020811062001c4d578151835260208301925060208201915060208103905062001c28565b60006001826020036101000a039050801983511681855116818117865250508694505050505092915050565b8160200151600183600001515101111562001ca85762001ca782600284602001510262001d5a60201b60201c565b5b815180516020818301018381536001820183525050505050565b62001ccc62001e14565b83602001518460000151518301111562001d0b5762001d0a84600262001cfd87602001518662001d3c60201b60201c565b0262001d5a60201b60201c565b5b60006001836101000a0390508451805184818301018684198251161781528582018352505050849150509392505050565b60008183111562001d505782905062001d54565b8190505b92915050565b60608260000151905062001d7583836200195c60201b60201c565b62001d87838262001bb960201b60201c565b50505050565b828054600181600116156101000203166002900490600052602060002090601f016020900481019282601f1062001dd057805160ff191683800117855562001e01565b8280016001018555821562001e01579182015b8281111562001e0057825182559160200191906001019062001de3565b5b50905062001e10919062001e2e565b5090565b604051806040016040528060608152602001600081525090565b62001e5391905b8082111562001e4f57600081600090555060010162001e35565b5090565b90565b6127628062001e666000396000f3fe60806040526004361061007b5760003560e01c8063a2e620451161004e578063a2e620451461030e578063d0febe4c14610318578063f479164c14610322578063fc0c546a1461034d5761007b565b806302c5115b1461007d57806327dc297e146100a857806338bbfa501461017a578063a035b1fe146102e3575b005b34801561008957600080fd5b506100926103a4565b6040518082815260200191505060405180910390f35b3480156100b457600080fd5b50610178600480360360408110156100cb57600080fd5b8101908080359060200190929190803590602001906401000000008111156100f257600080fd5b82018360208201111561010457600080fd5b8035906020019184600183028401116401000000008311171561012657600080fd5b91908080601f016020809104026020016040519081016040528093929190818152602001838380828437600081840152601f19601f8201169050808301925050505050505091929192905050506103ae565b005b34801561018657600080fd5b506102e16004803603606081101561019d57600080fd5b8101908080359060200190929190803590602001906401000000008111156101c457600080fd5b8201836020820111156101d657600080fd5b803590602001918460018302840111640100000000831117156101f857600080fd5b91908080601f016020809104026020016040519081016040528093929190818152602001838380828437600081840152601f19601f8201169050808301925050505050505091929192908035906020019064010000000081111561025b57600080fd5b82018360208201111561026d57600080fd5b8035906020019184600183028401116401000000008311171561028f57600080fd5b91908080601f016020809104026020016040519081016040528093929190818152602001838380828437600081840152601f19601f8201169050808301925050505050505091929192905050506103f1565b005b3480156102ef57600080fd5b506102f8610485565b6040518082815260200191505060405180910390f35b61031661048f565b005b6103206105db565b005b34801561032e57600080fd5b506103376107b8565b6040518082815260200191505060405180910390f35b34801561035957600080fd5b506103626107c2565b604051808273ffffffffffffffffffffffffffffffffffffffff1673ffffffffffffffffffffffffffffffffffffffff16815260200191505060405180910390f35b6000600a54905090565b6103ed828260006040519080825280601f01601f1916602001820160405280156103e75781602001600182028038833980820191505090505b506103f1565b5050565b6103f96107ec565b73ffffffffffffffffffffffffffffffffffffffff163373ffffffffffffffffffffffffffffffffffffffff161461043057600080fd5b61043861048f565b61044182610b0c565b6007819055507f3f98d1aa4d05c70b2a662beff6cdef1b5d633f6dd74b13c0c610dd6c06faf7986007546040518082815260200191505060405180910390a1505050565b6000600754905090565b476104ce6040518060400160405280600381526020017f55524c0000000000000000000000000000000000000000000000000000000000815250610b20565b1115610524577f746f97619dd4e795da5586af48fcbd8a87f2860948dec93277b5b67b2f105cab60405180806020018281038252604c815260200180612606604c913960600191505060405180910390a16105d9565b7f746f97619dd4e795da5586af48fcbd8a87f2860948dec93277b5b67b2f105cab6040518080602001828103825260368152602001806126f86036913960400191505060405180910390a16105d76102586040518060400160405280600b81526020017f636f6d7075746174696f6e00000000000000000000000000000000000000000081525060405180602001604052806040518060600160405280602e81526020016126ca602e9139815250610eb4565b505b565b600160008082825401925050819055506000805490506105fb33346111a5565b61060434611289565b600981905550610616336009546112a7565b61062c6001600a546113c990919063ffffffff16565b600a819055507f62c8fa2544d66979e18371ea23b5c3c23a62832d0d09e22239658e245ba24bc13334600954600a5460075442604051808773ffffffffffffffffffffffffffffffffffffffff1673ffffffffffffffffffffffffffffffffffffffff168152602001868152602001858152602001848152602001838152602001828152602001965050505050505060405180910390a16106cb611451565b7fa51b7efb20af786fff5f04b157be4e634c997b6f479876ad97c2772bc17b8704333442604051808473ffffffffffffffffffffffffffffffffffffffff1673ffffffffffffffffffffffffffffffffffffffff168152602001838152602001828152602001935050505060405180910390a160005481146107b5576040517f08c379a000000000000000000000000000000000000000000000000000000000815260040180806020018281038252601f8152602001807f5265656e7472616e637947756172643a207265656e7472616e742063616c6c0081525060200191505060405180910390fd5b50565b6000600854905090565b6000600660009054906101000a900473ffffffffffffffffffffffffffffffffffffffff16905090565b60008073ffffffffffffffffffffffffffffffffffffffff16600260009054906101000a900473ffffffffffffffffffffffffffffffffffffffff1673ffffffffffffffffffffffffffffffffffffffff16148061087457506000610872600260009054906101000a900473ffffffffffffffffffffffffffffffffffffffff166114b6565b145b156108855761088360006114c1565b505b600260009054906101000a900473ffffffffffffffffffffffffffffffffffffffff1673ffffffffffffffffffffffffffffffffffffffff166338cc48316040518163ffffffff1660e01b8152600401602060405180830381600087803b1580156108ef57600080fd5b505af1158015610903573d6000803e3d6000fd5b505050506040513d602081101561091957600080fd5b810190808051906020019092919050505073ffffffffffffffffffffffffffffffffffffffff16600160009054906101000a900473ffffffffffffffffffffffffffffffffffffffff1673ffffffffffffffffffffffffffffffffffffffff1614610a6457600260009054906101000a900473ffffffffffffffffffffffffffffffffffffffff1673ffffffffffffffffffffffffffffffffffffffff166338cc48316040518163ffffffff1660e01b8152600401602060405180830381600087803b1580156109e857600080fd5b505af11580156109fc573d6000803e3d6000fd5b505050506040513d6020811015610a1257600080fd5b8101908080519060200190929190505050600160006101000a81548173ffffffffffffffffffffffffffffffffffffffff021916908373ffffffffffffffffffffffffffffffffffffffff1602179055505b600160009054906101000a900473ffffffffffffffffffffffffffffffffffffffff1673ffffffffffffffffffffffffffffffffffffffff1663c281d19e6040518163ffffffff1660e01b815260040160206040518083038186803b158015610acc57600080fd5b505afa158015610ae0573d6000803e3d6000fd5b505050506040513d6020811015610af657600080fd5b8101908080519060200190929190505050905090565b6000610b198260006114d2565b9050919050565b60008073ffffffffffffffffffffffffffffffffffffffff16600260009054906101000a900473ffffffffffffffffffffffffffffffffffffffff1673ffffffffffffffffffffffffffffffffffffffff161480610ba857506000610ba6600260009054906101000a900473ffffffffffffffffffffffffffffffffffffffff166114b6565b145b15610bb957610bb760006114c1565b505b600260009054906101000a900473ffffffffffffffffffffffffffffffffffffffff1673ffffffffffffffffffffffffffffffffffffffff166338cc48316040518163ffffffff1660e01b8152600401602060405180830381600087803b158015610c2357600080fd5b505af1158015610c37573d6000803e3d6000fd5b505050506040513d6020811015610c4d57600080fd5b810190808051906020019092919050505073ffffffffffffffffffffffffffffffffffffffff16600160009054906101000a900473ffffffffffffffffffffffffffffffffffffffff1673ffffffffffffffffffffffffffffffffffffffff1614610d9857600260009054906101000a900473ffffffffffffffffffffffffffffffffffffffff1673ffffffffffffffffffffffffffffffffffffffff166338cc48316040518163ffffffff1660e01b8152600401602060405180830381600087803b158015610d1c57600080fd5b505af1158015610d30573d6000803e3d6000fd5b505050506040513d6020811015610d4657600080fd5b8101908080519060200190929190505050600160006101000a81548173ffffffffffffffffffffffffffffffffffffffff021916908373ffffffffffffffffffffffffffffffffffffffff1602179055505b600160009054906101000a900473ffffffffffffffffffffffffffffffffffffffff1673ffffffffffffffffffffffffffffffffffffffff1663524f3889836040518263ffffffff1660e01b81526004018080602001828103825283818151815260200191508051906020019080838360005b83811015610e26578082015181840152602081019050610e0b565b50505050905090810190601f168015610e535780820380516001836020036101000a031916815260200191505b5092505050602060405180830381600087803b158015610e7257600080fd5b505af1158015610e86573d6000803e3d6000fd5b505050506040513d6020811015610e9c57600080fd5b81019080805190602001909291905050509050919050565b60008073ffffffffffffffffffffffffffffffffffffffff16600260009054906101000a900473ffffffffffffffffffffffffffffffffffffffff1673ffffffffffffffffffffffffffffffffffffffff161480610f3c57506000610f3a600260009054906101000a900473ffffffffffffffffffffffffffffffffffffffff166114b6565b145b15610f4d57610f4b60006114c1565b505b600260009054906101000a900473ffffffffffffffffffffffffffffffffffffffff1673ffffffffffffffffffffffffffffffffffffffff166338cc48316040518163ffffffff1660e01b8152600401602060405180830381600087803b158015610fb757600080fd5b505af1158015610fcb573d6000803e3d6000fd5b505050506040513d6020811015610fe157600080fd5b810190808051906020019092919050505073ffffffffffffffffffffffffffffffffffffffff16600160009054906101000a900473ffffffffffffffffffffffffffffffffffffffff1673ffffffffffffffffffffffffffffffffffffffff161461112c57600260009054906101000a900473ffffffffffffffffffffffffffffffffffffffff1673ffffffffffffffffffffffffffffffffffffffff166338cc48316040518163ffffffff1660e01b8152600401602060405180830381600087803b1580156110b057600080fd5b505af11580156110c4573d6000803e3d6000fd5b505050506040513d60208110156110da57600080fd5b8101908080519060200190929190505050600160006101000a81548173ffffffffffffffffffffffffffffffffffffffff021916908373ffffffffffffffffffffffffffffffffffffffff1602179055505b6060600160405190808252806020026020018201604052801561116357816020015b606081526020019060019003908161114e5790505b5090508260006001811061117357fe5b60200201518160008151811061118557fe5b602002602001018190525061119b8585836115e5565b9150509392505050565b600073ffffffffffffffffffffffffffffffffffffffff168273ffffffffffffffffffffffffffffffffffffffff16141561122b576040517f08c379a00000000000000000000000000000000000000000000000000000000081526004018080602001828103825260318152602001806126996031913960400191505060405180910390fd5b6000811415611285576040517f08c379a00000000000000000000000000000000000000000000000000000000081526004018080602001828103825260248152602001806126756024913960400191505060405180910390fd5b5050565b60006112a060075483611b3d90919063ffffffff16565b9050919050565b6112af6107c2565b73ffffffffffffffffffffffffffffffffffffffff166340c10f1983836040518363ffffffff1660e01b8152600401808373ffffffffffffffffffffffffffffffffffffffff1673ffffffffffffffffffffffffffffffffffffffff16815260200182815260200192505050602060405180830381600087803b15801561133557600080fd5b505af1158015611349573d6000803e3d6000fd5b505050506040513d602081101561135f57600080fd5b81019080805190602001909291905050506113c5576040517f08c379a00000000000000000000000000000000000000000000000000000000081526004018080602001828103825260238152602001806126526023913960400191505060405180910390fd5b5050565b600080828401905083811015611447576040517f08c379a000000000000000000000000000000000000000000000000000000000815260040180806020018281038252601b8152602001807f536166654d6174683a206164646974696f6e206f766572666c6f77000000000081525060200191505060405180910390fd5b8091505092915050565b600073ffffffffffffffffffffffffffffffffffffffff166108fc349081150290604051600060405180830381858888f19350505050158015611498573d6000803e3d6000fd5b506114ae346008546113c990919063ffffffff16565b600881905550565b6000813b9050919050565b60006114cb611bcc565b9050919050565b600060608390506000809050600080905060008090505b83518110156115c657603084828151811061150057fe5b602001015160f81c60f81b60f81c60ff161015801561153c5750603984828151811061152857fe5b602001015160f81c60f81b60f81c60ff1611155b1561158e57811561155f576000861415611555576115c6565b8580600190039650505b600a83029250603084828151811061157357fe5b602001015160f81c60f81b60f81c60ff1603830192506115b9565b602e84828151811061159c57fe5b602001015160f81c60f81b60f81c60ff1614156115b857600191505b5b80806001019150506114e9565b5060008511156115d95784600a0a820291505b81935050505092915050565b60008073ffffffffffffffffffffffffffffffffffffffff16600260009054906101000a900473ffffffffffffffffffffffffffffffffffffffff1673ffffffffffffffffffffffffffffffffffffffff16148061166d5750600061166b600260009054906101000a900473ffffffffffffffffffffffffffffffffffffffff166114b6565b145b1561167e5761167c60006114c1565b505b600260009054906101000a900473ffffffffffffffffffffffffffffffffffffffff1673ffffffffffffffffffffffffffffffffffffffff166338cc48316040518163ffffffff1660e01b8152600401602060405180830381600087803b1580156116e857600080fd5b505af11580156116fc573d6000803e3d6000fd5b505050506040513d602081101561171257600080fd5b810190808051906020019092919050505073ffffffffffffffffffffffffffffffffffffffff16600160009054906101000a900473ffffffffffffffffffffffffffffffffffffffff1673ffffffffffffffffffffffffffffffffffffffff161461185d57600260009054906101000a900473ffffffffffffffffffffffffffffffffffffffff1673ffffffffffffffffffffffffffffffffffffffff166338cc48316040518163ffffffff1660e01b8152600401602060405180830381600087803b1580156117e157600080fd5b505af11580156117f5573d6000803e3d6000fd5b505050506040513d602081101561180b57600080fd5b8101908080519060200190929190505050600160006101000a81548173ffffffffffffffffffffffffffffffffffffffff021916908373ffffffffffffffffffffffffffffffffffffffff1602179055505b6000600160009054906101000a900473ffffffffffffffffffffffffffffffffffffffff1673ffffffffffffffffffffffffffffffffffffffff1663524f3889856040518263ffffffff1660e01b81526004018080602001828103825283818151815260200191508051906020019080838360005b838110156118ed5780820151818401526020810190506118d2565b50505050905090810190601f16801561191a5780820380516001836020036101000a031916815260200191505b5092505050602060405180830381600087803b15801561193957600080fd5b505af115801561194d573d6000803e3d6000fd5b505050506040513d602081101561196357600080fd5b8101908080519060200190929190505050905062030d403a02670de0b6b3a764000001811115611999576000801b915050611b36565b60606119a484612123565b9050600160009054906101000a900473ffffffffffffffffffffffffffffffffffffffff1673ffffffffffffffffffffffffffffffffffffffff166383eed3d5838888856040518563ffffffff1660e01b8152600401808481526020018060200180602001838103835285818151815260200191508051906020019080838360005b83811015611a41578082015181840152602081019050611a26565b50505050905090810190601f168015611a6e5780820380516001836020036101000a031916815260200191505b50838103825284818151815260200191508051906020019080838360005b83811015611aa7578082015181840152602081019050611a8c565b50505050905090810190601f168015611ad45780820380516001836020036101000a031916815260200191505b50955050505050506020604051808303818588803b158015611af557600080fd5b505af1158015611b09573d6000803e3d6000fd5b50505050506040513d6020811015611b2057600080fd5b8101908080519060200190929190505050925050505b9392505050565b6000808211611bb4576040517f08c379a000000000000000000000000000000000000000000000000000000000815260040180806020018281038252601a8152602001807f536166654d6174683a206469766973696f6e206279207a65726f00000000000081525060200191505060405180910390fd5b6000828481611bbf57fe5b0490508091505092915050565b600080611bec731d3b2638a7cc9f2cb3d298a3da7a90b67e5506ed6114b6565b1115611c8e57731d3b2638a7cc9f2cb3d298a3da7a90b67e5506ed600260006101000a81548173ffffffffffffffffffffffffffffffffffffffff021916908373ffffffffffffffffffffffffffffffffffffffff160217905550611c856040518060400160405280600b81526020017f6574685f6d61696e6e65740000000000000000000000000000000000000000008152506121a3565b60019050612120565b6000611cad73c03a2615d5efaf5f49f60b7bb6583eaec212fdf16114b6565b1115611d4f5773c03a2615d5efaf5f49f60b7bb6583eaec212fdf1600260006101000a81548173ffffffffffffffffffffffffffffffffffffffff021916908373ffffffffffffffffffffffffffffffffffffffff160217905550611d466040518060400160405280600c81526020017f6574685f726f707374656e3300000000000000000000000000000000000000008152506121a3565b60019050612120565b6000611d6e73b7a07bcf2ba2f2703b24c0691b5278999c59ac7e6114b6565b1115611e105773b7a07bcf2ba2f2703b24c0691b5278999c59ac7e600260006101000a81548173ffffffffffffffffffffffffffffffffffffffff021916908373ffffffffffffffffffffffffffffffffffffffff160217905550611e076040518060400160405280600981526020017f6574685f6b6f76616e00000000000000000000000000000000000000000000008152506121a3565b60019050612120565b6000611e2f73146500cfd35b22e4a392fe0adc06de1a1368ed486114b6565b1115611ed15773146500cfd35b22e4a392fe0adc06de1a1368ed48600260006101000a81548173ffffffffffffffffffffffffffffffffffffffff021916908373ffffffffffffffffffffffffffffffffffffffff160217905550611ec86040518060400160405280600b81526020017f6574685f72696e6b6562790000000000000000000000000000000000000000008152506121a3565b60019050612120565b6000611ef073a2998efd205fb9d4b4963afb70778d6354ad3a416114b6565b1115611f925773a2998efd205fb9d4b4963afb70778d6354ad3a41600260006101000a81548173ffffffffffffffffffffffffffffffffffffffff021916908373ffffffffffffffffffffffffffffffffffffffff160217905550611f896040518060400160405280600a81526020017f6574685f676f65726c69000000000000000000000000000000000000000000008152506121a3565b60019050612120565b6000611fb1736f485c8bf6fc43ea212e93bbf8ce046c7f1cb4756114b6565b111561201557736f485c8bf6fc43ea212e93bbf8ce046c7f1cb475600260006101000a81548173ffffffffffffffffffffffffffffffffffffffff021916908373ffffffffffffffffffffffffffffffffffffffff16021790555060019050612120565b60006120347320e12a1f859b3feae5fb2a0a32c18f5a65555bbf6114b6565b1115612098577320e12a1f859b3feae5fb2a0a32c18f5a65555bbf600260006101000a81548173ffffffffffffffffffffffffffffffffffffffff021916908373ffffffffffffffffffffffffffffffffffffffff16021790555060019050612120565b60006120b77351efaf4c8b3c9afbd5ab9f4bbc82784ab6ef8faa6114b6565b111561211b577351efaf4c8b3c9afbd5ab9f4bbc82784ab6ef8faa600260006101000a81548173ffffffffffffffffffffffffffffffffffffffff021916908373ffffffffffffffffffffffffffffffffffffffff16021790555060019050612120565b600090505b90565b606061212d6121bd565b612135612546565b612141816104006121c9565b61214a81612213565b60008090505b835181101561218c5761217f84828151811061216857fe5b60200260200101518361222190919063ffffffff16565b8080600101915050612150565b5061219681612246565b8060000151915050919050565b80600390805190602001906121b9929190612560565b5050565b60405180590338823950565b60008190506000602082816121da57fe5b06146121f357602081816121ea57fe5b06602003810190505b808360200181815250506040518084526000815281810160405250505050565b61221e816004612254565b50565b61222e8260038351612275565b61224181836123b590919063ffffffff16565b505050565b612251816007612254565b50565b612271601f60058360ff16901b178361246090919063ffffffff16565b5050565b601781116122a15761229c8160058460ff16901b60ff16178461246090919063ffffffff16565b6123b0565b60ff81116122e2576122c6601860058460ff16901b178461246090919063ffffffff16565b6122dc816001856124a09092919063ffffffff16565b506123af565b61ffff811161232457612308601960058460ff16901b178461246090919063ffffffff16565b61231e816002856124a09092919063ffffffff16565b506123ae565b63ffffffff81116123685761234c601a60058460ff16901b178461246090919063ffffffff16565b612362816004856124a09092919063ffffffff16565b506123ad565b67ffffffffffffffff81116123ac57612394601b60058460ff16901b178461246090919063ffffffff16565b6123aa816008856124a09092919063ffffffff16565b505b5b5b5b5b505050565b6123bd612546565b826020015183600001515183510111156123ed576123ec8360026123e686602001518651612507565b02612523565b5b60008060008451905085518051602081830101945086518101825260208701935050505b602081106124345781518352602083019250602082019150602081039050612411565b60006001826020036101000a039050801983511681855116818117865250508694505050505092915050565b8160200151600183600001515101111561248657612485826002846020015102612523565b5b815180516020818301018381536001820183525050505050565b6124a8612546565b8360200151846000015151830111156124d6576124d58460026124cf876020015186612507565b02612523565b5b60006001836101000a0390508451805184818301018684198251161781528582018352505050849150509392505050565b6000818311156125195782905061251d565b8190505b92915050565b60608260000151905061253683836121c9565b61254083826123b5565b50505050565b604051806040016040528060608152602001600081525090565b828054600181600116156101000203166002900490600052602060002090601f016020900481019282601f106125a157805160ff19168380011785556125cf565b828001600101855582156125cf579182015b828111156125ce5782518255916020019190600101906125b3565b5b5090506125dc91906125e0565b5090565b61260291905b808211156125fe5760008160009055506001016125e6565b5090565b9056fe50726f7661626c6520717565727920776173204e4f542073656e742c20706c656173652061646420736f6d652045544820746f20636f76657220666f72207468652071756572792066656521446563656e7472616c697a65642053746f72653a206d696e74696e67206661696c6564446563656e7472616c697a65642053746f72653a2077656920616d6f756e742069732030446563656e7472616c697a65642053746f72653a20696e766573746f7220697320746865207a65726f2061646472657373516d54477141483667716972313751733741526531646357576d5167537a58735a4d5a554372473346763657705250726f7661626c65207175657279207761732073656e742c207374616e64696e6720627920666f722074686520616e737765722e2e2ea265627a7a72315820d654350deaa45e74d6ba06f937d0947d2bbeda7e43c6927c189ed3819e07ceea64736f6c6343000510003250726f7661626c6520717565727920776173204e4f542073656e742c20706c656173652061646420736f6d652045544820746f20636f76657220666f72207468652071756572792066656521446563656e7472616c697a65642053746f72653a20746f6b656e20697320746865207a65726f2061646472657373516d54477141483667716972313751733741526531646357576d5167537a58735a4d5a554372473346763657705250726f7661626c65207175657279207761732073656e742c207374616e64696e6720627920666f722074686520616e737765722e2e2e",
  "source": "pragma solidity ^0.5.0;\n\nimport \"openzeppelin-solidity/contracts/math/SafeMath.sol\";\nimport \"openzeppelin-solidity/contracts/utils/ReentrancyGuard.sol\";\nimport \"./Token.sol\";\nimport \"./provableAPI.sol\";\n\ncontract DS is ReentrancyGuard, usingProvable {\n  using SafeMath for uint256;\n\n  Token private _token;\n  uint256 private _price;\n  uint256 private _weiBurned;\n  uint256 private _tokenAmount;\n  uint256 private _tradeId;\n\n  event TokenPurchase(address investor, uint256 amountWei, uint256 amountToken, uint256 id, uint256 price, uint256 timestamp);\n  event EtherBurned(address investor, uint256 amountWei, uint256 timestamp);\n\n  event LogNewQuery(string description);\n  event LogNewTicket(uint256 price);\n\n  constructor (uint256 price, Token token) public {\n    require(price != 0);\n    require(address(token) != address(0), \"Decentralized Store: token is the zero address\");\n\n    _price = price;\n    _token = token;\n\n    provable_setProof(proofType_Android | proofStorage_IPFS);\n    update();\n  }\n\n  function __callback(bytes32 _myid, string memory _result, bytes memory _proof) public {\n    require(msg.sender == provable_cbAddress());\n    update();\n\n    _price = parseInt(_result);\n    emit LogNewTicket(_price);\n  }\n\n  function update() public payable {\n    if (provable_getPrice(\"URL\") > address(this).balance) {\n      emit LogNewQuery(\"Provable query was NOT sent, please add some ETH to cover for the query fee!\");\n    } else {\n      emit LogNewQuery(\"Provable query was sent, standing by for the answer...\");\n      provable_query(600, \"computation\",[\"QmTGqAH6gqir17Qs7ARe1dcWWmQgSzXsZMZUCrG3Fv6WpR\"]);\n    }\n  }\n\n  function () external payable {\n  }\n\n  function token() public view returns (Token) {\n    return _token;\n  }\n\n  function price() public view returns (uint256) {\n    return _price;\n  }\n\n  function weiBurned() public view returns (uint256) {\n    return _weiBurned;\n  }\n\n  function tradeId() public view returns (uint256) {\n    return _tradeId;\n  }\n\n  function buyTokens() public nonReentrant payable {\n    _preValidatePurchase(msg.sender, msg.value);\n\n    _tokenAmount = _getTokenAmount(msg.value);\n\n    _processPurchase(msg.sender, _tokenAmount);\n    _tradeId = _tradeId.add(1);\n    emit TokenPurchase(msg.sender, msg.value, _tokenAmount, _tradeId, _price, now);\n\n    _burnEther();\n    emit EtherBurned(msg.sender, msg.value, now);\n  }\n\n  function _preValidatePurchase(address investor, uint256 weiAmount) internal view {\n    require(investor != address(0), \"Decentralized Store: investor is the zero address\");\n    require(weiAmount != 0, \"Decentralized Store: wei amount is 0\");\n  }\n\n  function _getTokenAmount(uint256 weiAmount) internal view returns (uint256) {\n    return weiAmount.div(_price);\n  }\n\n  function _processPurchase(address investor, uint256 _tokenAmount) internal {\n    require(\n      Token(address(token())).mint(investor, _tokenAmount),\n      \"Decentralized Store: minting failed\"\n    );\n  }\n\n  function _burnEther() internal {\n    address(0).transfer(msg.value);\n    _weiBurned = _weiBurned.add(msg.value);\n  }\n}\n",
  "sourcePath": "/mnt/c/pr0/0/src/contracts/DS.sol",
  "compiler": {
    "name": "solc",
    "version": "0.5.16+commit.9c3226ce.Emscripten.clang"
  },
  "schemaVersion": "3.2.5",
  "updatedAt": "2020-10-25T21:26:32.439Z",
  "devdoc": {
    "methods": {
      "__callback(bytes32,string)": {
        "details": "The following `__callback` functions are just placeholders ideally     meant to be defined in child contract when proofs are used.     The function bodies simply silence compiler warnings."
      }
    }
  },
  "userdoc": {
    "methods": {}
  }
}