{
  "contractName": "DS",
  "abi": [
    {
      "inputs": [
        {
          "internalType": "uint256",
          "name": "price",
          "type": "uint256"
        },
        {
          "internalType": "contract Token",
          "name": "token",
          "type": "address"
        }
      ],
      "payable": false,
      "stateMutability": "nonpayable",
      "type": "constructor"
    },
    {
      "anonymous": false,
      "inputs": [
        {
          "indexed": false,
          "internalType": "address",
          "name": "investor",
          "type": "address"
        },
        {
          "indexed": false,
          "internalType": "uint256",
          "name": "amountWei",
          "type": "uint256"
        },
        {
          "indexed": false,
          "internalType": "uint256",
          "name": "timestamp",
          "type": "uint256"
        }
      ],
      "name": "EtherBurned",
      "type": "event"
    },
    {
      "anonymous": false,
      "inputs": [
        {
          "indexed": false,
          "internalType": "string",
          "name": "description",
          "type": "string"
        }
      ],
      "name": "LogNewQuery",
      "type": "event"
    },
    {
      "anonymous": false,
      "inputs": [
        {
          "indexed": false,
          "internalType": "uint256",
          "name": "price",
          "type": "uint256"
        }
      ],
      "name": "LogNewTicket",
      "type": "event"
    },
    {
      "anonymous": false,
      "inputs": [
        {
          "indexed": false,
          "internalType": "address",
          "name": "investor",
          "type": "address"
        },
        {
          "indexed": false,
          "internalType": "uint256",
          "name": "amountWei",
          "type": "uint256"
        },
        {
          "indexed": false,
          "internalType": "uint256",
          "name": "amountToken",
          "type": "uint256"
        },
        {
          "indexed": false,
          "internalType": "uint256",
          "name": "id",
          "type": "uint256"
        },
        {
          "indexed": false,
          "internalType": "uint256",
          "name": "price",
          "type": "uint256"
        },
        {
          "indexed": false,
          "internalType": "uint256",
          "name": "timestamp",
          "type": "uint256"
        }
      ],
      "name": "TokenPurchase",
      "type": "event"
    },
    {
      "payable": true,
      "stateMutability": "payable",
      "type": "fallback"
    },
    {
      "constant": false,
      "inputs": [
        {
          "internalType": "bytes32",
          "name": "_myid",
          "type": "bytes32"
        },
        {
          "internalType": "string",
          "name": "_result",
          "type": "string"
        }
      ],
      "name": "__callback",
      "outputs": [],
      "payable": false,
      "stateMutability": "nonpayable",
      "type": "function"
    },
    {
      "constant": false,
      "inputs": [
        {
          "internalType": "bytes32",
          "name": "_myid",
          "type": "bytes32"
        },
        {
          "internalType": "string",
          "name": "_result",
          "type": "string"
        },
        {
          "internalType": "bytes",
          "name": "_proof",
          "type": "bytes"
        }
      ],
      "name": "__callback",
      "outputs": [],
      "payable": false,
      "stateMutability": "nonpayable",
      "type": "function"
    },
    {
      "constant": false,
      "inputs": [],
      "name": "update",
      "outputs": [],
      "payable": true,
      "stateMutability": "payable",
      "type": "function"
    },
    {
      "constant": true,
      "inputs": [],
      "name": "token",
      "outputs": [
        {
          "internalType": "contract Token",
          "name": "",
          "type": "address"
        }
      ],
      "payable": false,
      "stateMutability": "view",
      "type": "function"
    },
    {
      "constant": true,
      "inputs": [],
      "name": "price",
      "outputs": [
        {
          "internalType": "uint256",
          "name": "",
          "type": "uint256"
        }
      ],
      "payable": false,
      "stateMutability": "view",
      "type": "function"
    },
    {
      "constant": true,
      "inputs": [],
      "name": "weiBurned",
      "outputs": [
        {
          "internalType": "uint256",
          "name": "",
          "type": "uint256"
        }
      ],
      "payable": false,
      "stateMutability": "view",
      "type": "function"
    },
    {
      "constant": true,
      "inputs": [],
      "name": "tradeId",
      "outputs": [
        {
          "internalType": "uint256",
          "name": "",
          "type": "uint256"
        }
      ],
      "payable": false,
      "stateMutability": "view",
      "type": "function"
    },
    {
      "constant": false,
      "inputs": [],
      "name": "buyTokens",
      "outputs": [],
      "payable": true,
      "stateMutability": "payable",
      "type": "function"
    }
  ],
  "bytecode": "0x60806040523480156200001157600080fd5b50604051620046d2380380620046d2833981810160405260408110156200003757600080fd5b810190808051906020019092919080519060200190929190505050600160008190555060008214156200006957600080fd5b600073ffffffffffffffffffffffffffffffffffffffff168173ffffffffffffffffffffffffffffffffffffffff161415620000f1576040517f08c379a000000000000000000000000000000000000000000000000000000000815260040180806020018281038252602e8152602001806200466e602e913960400191505060405180910390fd5b8160078190555080600660006101000a81548173ffffffffffffffffffffffffffffffffffffffff021916908373ffffffffffffffffffffffffffffffffffffffff16021790555062000154600160f81b604060f81b176200016c60201b60201c565b62000164620004d260201b60201c565b505062001e6c565b600073ffffffffffffffffffffffffffffffffffffffff16600260009054906101000a900473ffffffffffffffffffffffffffffffffffffffff1673ffffffffffffffffffffffffffffffffffffffff161480620001fc57506000620001fa600260009054906101000a900473ffffffffffffffffffffffffffffffffffffffff166200064960201b60201c565b145b1562000216576200021460006200065460201b60201c565b505b600260009054906101000a900473ffffffffffffffffffffffffffffffffffffffff1673ffffffffffffffffffffffffffffffffffffffff166338cc48316040518163ffffffff1660e01b8152600401602060405180830381600087803b1580156200028157600080fd5b505af115801562000296573d6000803e3d6000fd5b505050506040513d6020811015620002ad57600080fd5b810190808051906020019092919050505073ffffffffffffffffffffffffffffffffffffffff16600160009054906101000a900473ffffffffffffffffffffffffffffffffffffffff1673ffffffffffffffffffffffffffffffffffffffff1614620003fc57600260009054906101000a900473ffffffffffffffffffffffffffffffffffffffff1673ffffffffffffffffffffffffffffffffffffffff166338cc48316040518163ffffffff1660e01b8152600401602060405180830381600087803b1580156200037e57600080fd5b505af115801562000393573d6000803e3d6000fd5b505050506040513d6020811015620003aa57600080fd5b8101908080519060200190929190505050600160006101000a81548173ffffffffffffffffffffffffffffffffffffffff021916908373ffffffffffffffffffffffffffffffffffffffff1602179055505b600160009054906101000a900473ffffffffffffffffffffffffffffffffffffffff1673ffffffffffffffffffffffffffffffffffffffff1663688dcfd7826040518263ffffffff1660e01b815260040180827effffffffffffffffffffffffffffffffffffffffffffffffffffffffffffff19167effffffffffffffffffffffffffffffffffffffffffffffffffffffffffffff19168152602001915050600060405180830381600087803b158015620004b657600080fd5b505af1158015620004cb573d6000803e3d6000fd5b5050505050565b3073ffffffffffffffffffffffffffffffffffffffff1631620005306040518060400160405280600381526020017f55524c00000000000000000000000000000000000000000000000000000000008152506200066d60201b60201c565b111562000589577f746f97619dd4e795da5586af48fcbd8a87f2860948dec93277b5b67b2f105cab60405180806020018281038252604c815260200180620045f4604c913960600191505060405180910390a162000647565b7f746f97619dd4e795da5586af48fcbd8a87f2860948dec93277b5b67b2f105cab6040518080602001828103825260368152602001806200469c6036913960400191505060405180910390a16200064560646040518060400160405280600b81526020017f636f6d7075746174696f6e00000000000000000000000000000000000000000081525060405180602001604052806040518060600160405280602e815260200162004640602e913981525062000a2060201b60201c565b505b565b6000813b9050919050565b60006200066662000d3660201b60201c565b9050919050565b60008073ffffffffffffffffffffffffffffffffffffffff16600260009054906101000a900473ffffffffffffffffffffffffffffffffffffffff1673ffffffffffffffffffffffffffffffffffffffff161480620006fe57506000620006fc600260009054906101000a900473ffffffffffffffffffffffffffffffffffffffff166200064960201b60201c565b145b1562000718576200071660006200065460201b60201c565b505b600260009054906101000a900473ffffffffffffffffffffffffffffffffffffffff1673ffffffffffffffffffffffffffffffffffffffff166338cc48316040518163ffffffff1660e01b8152600401602060405180830381600087803b1580156200078357600080fd5b505af115801562000798573d6000803e3d6000fd5b505050506040513d6020811015620007af57600080fd5b810190808051906020019092919050505073ffffffffffffffffffffffffffffffffffffffff16600160009054906101000a900473ffffffffffffffffffffffffffffffffffffffff1673ffffffffffffffffffffffffffffffffffffffff1614620008fe57600260009054906101000a900473ffffffffffffffffffffffffffffffffffffffff1673ffffffffffffffffffffffffffffffffffffffff166338cc48316040518163ffffffff1660e01b8152600401602060405180830381600087803b1580156200088057600080fd5b505af115801562000895573d6000803e3d6000fd5b505050506040513d6020811015620008ac57600080fd5b8101908080519060200190929190505050600160006101000a81548173ffffffffffffffffffffffffffffffffffffffff021916908373ffffffffffffffffffffffffffffffffffffffff1602179055505b600160009054906101000a900473ffffffffffffffffffffffffffffffffffffffff1673ffffffffffffffffffffffffffffffffffffffff1663524f3889836040518263ffffffff1660e01b81526004018080602001828103825283818151815260200191508051906020019080838360005b838110156200098e57808201518184015260208101905062000971565b50505050905090810190601f168015620009bc5780820380516001836020036101000a031916815260200191505b5092505050602060405180830381600087803b158015620009dc57600080fd5b505af1158015620009f1573d6000803e3d6000fd5b505050506040513d602081101562000a0857600080fd5b81019080805190602001909291905050509050919050565b60008073ffffffffffffffffffffffffffffffffffffffff16600260009054906101000a900473ffffffffffffffffffffffffffffffffffffffff1673ffffffffffffffffffffffffffffffffffffffff16148062000ab15750600062000aaf600260009054906101000a900473ffffffffffffffffffffffffffffffffffffffff166200064960201b60201c565b145b1562000acb5762000ac960006200065460201b60201c565b505b600260009054906101000a900473ffffffffffffffffffffffffffffffffffffffff1673ffffffffffffffffffffffffffffffffffffffff166338cc48316040518163ffffffff1660e01b8152600401602060405180830381600087803b15801562000b3657600080fd5b505af115801562000b4b573d6000803e3d6000fd5b505050506040513d602081101562000b6257600080fd5b810190808051906020019092919050505073ffffffffffffffffffffffffffffffffffffffff16600160009054906101000a900473ffffffffffffffffffffffffffffffffffffffff1673ffffffffffffffffffffffffffffffffffffffff161462000cb157600260009054906101000a900473ffffffffffffffffffffffffffffffffffffffff1673ffffffffffffffffffffffffffffffffffffffff166338cc48316040518163ffffffff1660e01b8152600401602060405180830381600087803b15801562000c3357600080fd5b505af115801562000c48573d6000803e3d6000fd5b505050506040513d602081101562000c5f57600080fd5b8101908080519060200190929190505050600160006101000a81548173ffffffffffffffffffffffffffffffffffffffff021916908373ffffffffffffffffffffffffffffffffffffffff1602179055505b6060600160405190808252806020026020018201604052801562000cea57816020015b606081526020019060019003908162000cd45790505b5090508260006001811062000cfb57fe5b60200201518160008151811062000d0e57fe5b602002602001018190525062000d2c8585836200130560201b60201c565b9150509392505050565b60008062000d5e731d3b2638a7cc9f2cb3d298a3da7a90b67e5506ed6200064960201b60201c565b111562000e0a57731d3b2638a7cc9f2cb3d298a3da7a90b67e5506ed600260006101000a81548173ffffffffffffffffffffffffffffffffffffffff021916908373ffffffffffffffffffffffffffffffffffffffff16021790555062000e006040518060400160405280600b81526020017f6574685f6d61696e6e65740000000000000000000000000000000000000000008152506200188f60201b60201c565b6001905062001302565b600062000e3173c03a2615d5efaf5f49f60b7bb6583eaec212fdf16200064960201b60201c565b111562000edd5773c03a2615d5efaf5f49f60b7bb6583eaec212fdf1600260006101000a81548173ffffffffffffffffffffffffffffffffffffffff021916908373ffffffffffffffffffffffffffffffffffffffff16021790555062000ed36040518060400160405280600c81526020017f6574685f726f707374656e3300000000000000000000000000000000000000008152506200188f60201b60201c565b6001905062001302565b600062000f0473b7a07bcf2ba2f2703b24c0691b5278999c59ac7e6200064960201b60201c565b111562000fb05773b7a07bcf2ba2f2703b24c0691b5278999c59ac7e600260006101000a81548173ffffffffffffffffffffffffffffffffffffffff021916908373ffffffffffffffffffffffffffffffffffffffff16021790555062000fa66040518060400160405280600981526020017f6574685f6b6f76616e00000000000000000000000000000000000000000000008152506200188f60201b60201c565b6001905062001302565b600062000fd773146500cfd35b22e4a392fe0adc06de1a1368ed486200064960201b60201c565b1115620010835773146500cfd35b22e4a392fe0adc06de1a1368ed48600260006101000a81548173ffffffffffffffffffffffffffffffffffffffff021916908373ffffffffffffffffffffffffffffffffffffffff160217905550620010796040518060400160405280600b81526020017f6574685f72696e6b6562790000000000000000000000000000000000000000008152506200188f60201b60201c565b6001905062001302565b6000620010aa73a2998efd205fb9d4b4963afb70778d6354ad3a416200064960201b60201c565b1115620011565773a2998efd205fb9d4b4963afb70778d6354ad3a41600260006101000a81548173ffffffffffffffffffffffffffffffffffffffff021916908373ffffffffffffffffffffffffffffffffffffffff1602179055506200114c6040518060400160405280600a81526020017f6574685f676f65726c69000000000000000000000000000000000000000000008152506200188f60201b60201c565b6001905062001302565b60006200117d736f485c8bf6fc43ea212e93bbf8ce046c7f1cb4756200064960201b60201c565b1115620011e357736f485c8bf6fc43ea212e93bbf8ce046c7f1cb475600260006101000a81548173ffffffffffffffffffffffffffffffffffffffff021916908373ffffffffffffffffffffffffffffffffffffffff1602179055506001905062001302565b60006200120a7320e12a1f859b3feae5fb2a0a32c18f5a65555bbf6200064960201b60201c565b111562001270577320e12a1f859b3feae5fb2a0a32c18f5a65555bbf600260006101000a81548173ffffffffffffffffffffffffffffffffffffffff021916908373ffffffffffffffffffffffffffffffffffffffff1602179055506001905062001302565b6000620012977351efaf4c8b3c9afbd5ab9f4bbc82784ab6ef8faa6200064960201b60201c565b1115620012fd577351efaf4c8b3c9afbd5ab9f4bbc82784ab6ef8faa600260006101000a81548173ffffffffffffffffffffffffffffffffffffffff021916908373ffffffffffffffffffffffffffffffffffffffff1602179055506001905062001302565b600090505b90565b60008073ffffffffffffffffffffffffffffffffffffffff16600260009054906101000a900473ffffffffffffffffffffffffffffffffffffffff1673ffffffffffffffffffffffffffffffffffffffff161480620013965750600062001394600260009054906101000a900473ffffffffffffffffffffffffffffffffffffffff166200064960201b60201c565b145b15620013b057620013ae60006200065460201b60201c565b505b600260009054906101000a900473ffffffffffffffffffffffffffffffffffffffff1673ffffffffffffffffffffffffffffffffffffffff166338cc48316040518163ffffffff1660e01b8152600401602060405180830381600087803b1580156200141b57600080fd5b505af115801562001430573d6000803e3d6000fd5b505050506040513d60208110156200144757600080fd5b810190808051906020019092919050505073ffffffffffffffffffffffffffffffffffffffff16600160009054906101000a900473ffffffffffffffffffffffffffffffffffffffff1673ffffffffffffffffffffffffffffffffffffffff16146200159657600260009054906101000a900473ffffffffffffffffffffffffffffffffffffffff1673ffffffffffffffffffffffffffffffffffffffff166338cc48316040518163ffffffff1660e01b8152600401602060405180830381600087803b1580156200151857600080fd5b505af11580156200152d573d6000803e3d6000fd5b505050506040513d60208110156200154457600080fd5b8101908080519060200190929190505050600160006101000a81548173ffffffffffffffffffffffffffffffffffffffff021916908373ffffffffffffffffffffffffffffffffffffffff1602179055505b6000600160009054906101000a900473ffffffffffffffffffffffffffffffffffffffff1673ffffffffffffffffffffffffffffffffffffffff1663524f3889856040518263ffffffff1660e01b81526004018080602001828103825283818151815260200191508051906020019080838360005b83811015620016285780820151818401526020810190506200160b565b50505050905090810190601f168015620016565780820380516001836020036101000a031916815260200191505b5092505050602060405180830381600087803b1580156200167657600080fd5b505af11580156200168b573d6000803e3d6000fd5b505050506040513d6020811015620016a257600080fd5b8101908080519060200190929190505050905062030d403a02670de0b6b3a764000001811115620016da576000801b91505062001888565b6060620016ed84620018ab60201b60201c565b9050600160009054906101000a900473ffffffffffffffffffffffffffffffffffffffff1673ffffffffffffffffffffffffffffffffffffffff166383eed3d5838888856040518563ffffffff1660e01b8152600401808481526020018060200180602001838103835285818151815260200191508051906020019080838360005b838110156200178c5780820151818401526020810190506200176f565b50505050905090810190601f168015620017ba5780820380516001836020036101000a031916815260200191505b50838103825284818151815260200191508051906020019080838360005b83811015620017f5578082015181840152602081019050620017d8565b50505050905090810190601f168015620018235780820380516001836020036101000a031916815260200191505b50955050505050506020604051808303818588803b1580156200184557600080fd5b505af11580156200185a573d6000803e3d6000fd5b50505050506040513d60208110156200187257600080fd5b8101908080519060200190929190505050925050505b9392505050565b8060039080519060200190620018a792919062001da3565b5050565b6060620018bd6200196660201b60201c565b620018c762001e2a565b620018e0816104006200197260201b620021df1760201c565b620018f681620019bf60201b620022291760201c565b60008090505b83518110156200194257620019348482815181106200191757fe5b602002602001015183620019d560201b620022371790919060201c565b8080600101915050620018fc565b50620019598162001a0960201b6200225c1760201c565b8060000151915050919050565b60405180590338823950565b60008190506000602082816200198457fe5b06146200199f57602081816200199657fe5b06602003810190505b808360200181815250506040518084526000815281810160405250505050565b620019d281600462001a1f60201b60201c565b50565b620019ea826003835162001a4760201b60201c565b62001a04818362001bcf60201b620023cb1790919060201c565b505050565b62001a1c81600762001a1f60201b60201c565b50565b62001a43601f60058360ff16901b178362001c8f60201b620024761790919060201c565b5050565b6017811162001a7c5762001a768160058460ff16901b60ff16178462001c8f60201b620024761790919060201c565b62001bca565b60ff811162001acd5762001aa9601860058460ff16901b178462001c8f60201b620024761790919060201c565b62001ac68160018562001cd860201b620024b6179092919060201c565b5062001bc9565b61ffff811162001b1f5762001afb601960058460ff16901b178462001c8f60201b620024761790919060201c565b62001b188160028562001cd860201b620024b6179092919060201c565b5062001bc8565b63ffffffff811162001b735762001b4f601a60058460ff16901b178462001c8f60201b620024761790919060201c565b62001b6c8160048562001cd860201b620024b6179092919060201c565b5062001bc7565b67ffffffffffffffff811162001bc65762001ba7601b60058460ff16901b178462001c8f60201b620024761790919060201c565b62001bc48160088562001cd860201b620024b6179092919060201c565b505b5b5b5b5b505050565b62001bd962001e2a565b8260200151836000015151835101111562001c1a5762001c1983600262001c0c8660200151865162001d5260201b60201c565b0262001d7060201b60201c565b5b60008060008451905085518051602081830101945086518101825260208701935050505b6020811062001c63578151835260208301925060208201915060208103905062001c3e565b60006001826020036101000a039050801983511681855116818117865250508694505050505092915050565b8160200151600183600001515101111562001cbe5762001cbd82600284602001510262001d7060201b60201c565b5b815180516020818301018381536001820183525050505050565b62001ce262001e2a565b83602001518460000151518301111562001d215762001d2084600262001d1387602001518662001d5260201b60201c565b0262001d7060201b60201c565b5b60006001836101000a0390508451805184818301018684198251161781528582018352505050849150509392505050565b60008183111562001d665782905062001d6a565b8190505b92915050565b60608260000151905062001d8b83836200197260201b60201c565b62001d9d838262001bcf60201b60201c565b50505050565b828054600181600116156101000203166002900490600052602060002090601f016020900481019282601f1062001de657805160ff191683800117855562001e17565b8280016001018555821562001e17579182015b8281111562001e1657825182559160200191906001019062001df9565b5b50905062001e26919062001e44565b5090565b604051806040016040528060608152602001600081525090565b62001e6991905b8082111562001e6557600081600090555060010162001e4b565b5090565b90565b6127788062001e7c6000396000f3fe60806040526004361061007b5760003560e01c8063a2e620451161004e578063a2e620451461030e578063d0febe4c14610318578063f479164c14610322578063fc0c546a1461034d5761007b565b806302c5115b1461007d57806327dc297e146100a857806338bbfa501461017a578063a035b1fe146102e3575b005b34801561008957600080fd5b506100926103a4565b6040518082815260200191505060405180910390f35b3480156100b457600080fd5b50610178600480360360408110156100cb57600080fd5b8101908080359060200190929190803590602001906401000000008111156100f257600080fd5b82018360208201111561010457600080fd5b8035906020019184600183028401116401000000008311171561012657600080fd5b91908080601f016020809104026020016040519081016040528093929190818152602001838380828437600081840152601f19601f8201169050808301925050505050505091929192905050506103ae565b005b34801561018657600080fd5b506102e16004803603606081101561019d57600080fd5b8101908080359060200190929190803590602001906401000000008111156101c457600080fd5b8201836020820111156101d657600080fd5b803590602001918460018302840111640100000000831117156101f857600080fd5b91908080601f016020809104026020016040519081016040528093929190818152602001838380828437600081840152601f19601f8201169050808301925050505050505091929192908035906020019064010000000081111561025b57600080fd5b82018360208201111561026d57600080fd5b8035906020019184600183028401116401000000008311171561028f57600080fd5b91908080601f016020809104026020016040519081016040528093929190818152602001838380828437600081840152601f19601f8201169050808301925050505050505091929192905050506103f1565b005b3480156102ef57600080fd5b506102f8610485565b6040518082815260200191505060405180910390f35b61031661048f565b005b6103206105f1565b005b34801561032e57600080fd5b506103376107ce565b6040518082815260200191505060405180910390f35b34801561035957600080fd5b506103626107d8565b604051808273ffffffffffffffffffffffffffffffffffffffff1673ffffffffffffffffffffffffffffffffffffffff16815260200191505060405180910390f35b6000600a54905090565b6103ed828260006040519080825280601f01601f1916602001820160405280156103e75781602001600182028038833980820191505090505b506103f1565b5050565b6103f9610802565b73ffffffffffffffffffffffffffffffffffffffff163373ffffffffffffffffffffffffffffffffffffffff161461043057600080fd5b61043861048f565b61044182610b22565b6007819055507f3f98d1aa4d05c70b2a662beff6cdef1b5d633f6dd74b13c0c610dd6c06faf7986007546040518082815260200191505060405180910390a1505050565b6000600754905090565b3073ffffffffffffffffffffffffffffffffffffffff16316104e56040518060400160405280600381526020017f55524c0000000000000000000000000000000000000000000000000000000000815250610b36565b111561053b577f746f97619dd4e795da5586af48fcbd8a87f2860948dec93277b5b67b2f105cab60405180806020018281038252604c81526020018061261c604c913960600191505060405180910390a16105ef565b7f746f97619dd4e795da5586af48fcbd8a87f2860948dec93277b5b67b2f105cab60405180806020018281038252603681526020018061270e6036913960400191505060405180910390a16105ed60646040518060400160405280600b81526020017f636f6d7075746174696f6e00000000000000000000000000000000000000000081525060405180602001604052806040518060600160405280602e81526020016126e0602e9139815250610eca565b505b565b6001600080828254019250508190555060008054905061061133346111bb565b61061a3461129f565b60098190555061062c336009546112bd565b6106426001600a546113df90919063ffffffff16565b600a819055507f62c8fa2544d66979e18371ea23b5c3c23a62832d0d09e22239658e245ba24bc13334600954600a5460075442604051808773ffffffffffffffffffffffffffffffffffffffff1673ffffffffffffffffffffffffffffffffffffffff168152602001868152602001858152602001848152602001838152602001828152602001965050505050505060405180910390a16106e1611467565b7fa51b7efb20af786fff5f04b157be4e634c997b6f479876ad97c2772bc17b8704333442604051808473ffffffffffffffffffffffffffffffffffffffff1673ffffffffffffffffffffffffffffffffffffffff168152602001838152602001828152602001935050505060405180910390a160005481146107cb576040517f08c379a000000000000000000000000000000000000000000000000000000000815260040180806020018281038252601f8152602001807f5265656e7472616e637947756172643a207265656e7472616e742063616c6c0081525060200191505060405180910390fd5b50565b6000600854905090565b6000600660009054906101000a900473ffffffffffffffffffffffffffffffffffffffff16905090565b60008073ffffffffffffffffffffffffffffffffffffffff16600260009054906101000a900473ffffffffffffffffffffffffffffffffffffffff1673ffffffffffffffffffffffffffffffffffffffff16148061088a57506000610888600260009054906101000a900473ffffffffffffffffffffffffffffffffffffffff166114cc565b145b1561089b5761089960006114d7565b505b600260009054906101000a900473ffffffffffffffffffffffffffffffffffffffff1673ffffffffffffffffffffffffffffffffffffffff166338cc48316040518163ffffffff1660e01b8152600401602060405180830381600087803b15801561090557600080fd5b505af1158015610919573d6000803e3d6000fd5b505050506040513d602081101561092f57600080fd5b810190808051906020019092919050505073ffffffffffffffffffffffffffffffffffffffff16600160009054906101000a900473ffffffffffffffffffffffffffffffffffffffff1673ffffffffffffffffffffffffffffffffffffffff1614610a7a57600260009054906101000a900473ffffffffffffffffffffffffffffffffffffffff1673ffffffffffffffffffffffffffffffffffffffff166338cc48316040518163ffffffff1660e01b8152600401602060405180830381600087803b1580156109fe57600080fd5b505af1158015610a12573d6000803e3d6000fd5b505050506040513d6020811015610a2857600080fd5b8101908080519060200190929190505050600160006101000a81548173ffffffffffffffffffffffffffffffffffffffff021916908373ffffffffffffffffffffffffffffffffffffffff1602179055505b600160009054906101000a900473ffffffffffffffffffffffffffffffffffffffff1673ffffffffffffffffffffffffffffffffffffffff1663c281d19e6040518163ffffffff1660e01b815260040160206040518083038186803b158015610ae257600080fd5b505afa158015610af6573d6000803e3d6000fd5b505050506040513d6020811015610b0c57600080fd5b8101908080519060200190929190505050905090565b6000610b2f8260006114e8565b9050919050565b60008073ffffffffffffffffffffffffffffffffffffffff16600260009054906101000a900473ffffffffffffffffffffffffffffffffffffffff1673ffffffffffffffffffffffffffffffffffffffff161480610bbe57506000610bbc600260009054906101000a900473ffffffffffffffffffffffffffffffffffffffff166114cc565b145b15610bcf57610bcd60006114d7565b505b600260009054906101000a900473ffffffffffffffffffffffffffffffffffffffff1673ffffffffffffffffffffffffffffffffffffffff166338cc48316040518163ffffffff1660e01b8152600401602060405180830381600087803b158015610c3957600080fd5b505af1158015610c4d573d6000803e3d6000fd5b505050506040513d6020811015610c6357600080fd5b810190808051906020019092919050505073ffffffffffffffffffffffffffffffffffffffff16600160009054906101000a900473ffffffffffffffffffffffffffffffffffffffff1673ffffffffffffffffffffffffffffffffffffffff1614610dae57600260009054906101000a900473ffffffffffffffffffffffffffffffffffffffff1673ffffffffffffffffffffffffffffffffffffffff166338cc48316040518163ffffffff1660e01b8152600401602060405180830381600087803b158015610d3257600080fd5b505af1158015610d46573d6000803e3d6000fd5b505050506040513d6020811015610d5c57600080fd5b8101908080519060200190929190505050600160006101000a81548173ffffffffffffffffffffffffffffffffffffffff021916908373ffffffffffffffffffffffffffffffffffffffff1602179055505b600160009054906101000a900473ffffffffffffffffffffffffffffffffffffffff1673ffffffffffffffffffffffffffffffffffffffff1663524f3889836040518263ffffffff1660e01b81526004018080602001828103825283818151815260200191508051906020019080838360005b83811015610e3c578082015181840152602081019050610e21565b50505050905090810190601f168015610e695780820380516001836020036101000a031916815260200191505b5092505050602060405180830381600087803b158015610e8857600080fd5b505af1158015610e9c573d6000803e3d6000fd5b505050506040513d6020811015610eb257600080fd5b81019080805190602001909291905050509050919050565b60008073ffffffffffffffffffffffffffffffffffffffff16600260009054906101000a900473ffffffffffffffffffffffffffffffffffffffff1673ffffffffffffffffffffffffffffffffffffffff161480610f5257506000610f50600260009054906101000a900473ffffffffffffffffffffffffffffffffffffffff166114cc565b145b15610f6357610f6160006114d7565b505b600260009054906101000a900473ffffffffffffffffffffffffffffffffffffffff1673ffffffffffffffffffffffffffffffffffffffff166338cc48316040518163ffffffff1660e01b8152600401602060405180830381600087803b158015610fcd57600080fd5b505af1158015610fe1573d6000803e3d6000fd5b505050506040513d6020811015610ff757600080fd5b810190808051906020019092919050505073ffffffffffffffffffffffffffffffffffffffff16600160009054906101000a900473ffffffffffffffffffffffffffffffffffffffff1673ffffffffffffffffffffffffffffffffffffffff161461114257600260009054906101000a900473ffffffffffffffffffffffffffffffffffffffff1673ffffffffffffffffffffffffffffffffffffffff166338cc48316040518163ffffffff1660e01b8152600401602060405180830381600087803b1580156110c657600080fd5b505af11580156110da573d6000803e3d6000fd5b505050506040513d60208110156110f057600080fd5b8101908080519060200190929190505050600160006101000a81548173ffffffffffffffffffffffffffffffffffffffff021916908373ffffffffffffffffffffffffffffffffffffffff1602179055505b6060600160405190808252806020026020018201604052801561117957816020015b60608152602001906001900390816111645790505b5090508260006001811061118957fe5b60200201518160008151811061119b57fe5b60200260200101819052506111b18585836115fb565b9150509392505050565b600073ffffffffffffffffffffffffffffffffffffffff168273ffffffffffffffffffffffffffffffffffffffff161415611241576040517f08c379a00000000000000000000000000000000000000000000000000000000081526004018080602001828103825260318152602001806126af6031913960400191505060405180910390fd5b600081141561129b576040517f08c379a000000000000000000000000000000000000000000000000000000000815260040180806020018281038252602481526020018061268b6024913960400191505060405180910390fd5b5050565b60006112b660075483611b5390919063ffffffff16565b9050919050565b6112c56107d8565b73ffffffffffffffffffffffffffffffffffffffff166340c10f1983836040518363ffffffff1660e01b8152600401808373ffffffffffffffffffffffffffffffffffffffff1673ffffffffffffffffffffffffffffffffffffffff16815260200182815260200192505050602060405180830381600087803b15801561134b57600080fd5b505af115801561135f573d6000803e3d6000fd5b505050506040513d602081101561137557600080fd5b81019080805190602001909291905050506113db576040517f08c379a00000000000000000000000000000000000000000000000000000000081526004018080602001828103825260238152602001806126686023913960400191505060405180910390fd5b5050565b60008082840190508381101561145d576040517f08c379a000000000000000000000000000000000000000000000000000000000815260040180806020018281038252601b8152602001807f536166654d6174683a206164646974696f6e206f766572666c6f77000000000081525060200191505060405180910390fd5b8091505092915050565b600073ffffffffffffffffffffffffffffffffffffffff166108fc349081150290604051600060405180830381858888f193505050501580156114ae573d6000803e3d6000fd5b506114c4346008546113df90919063ffffffff16565b600881905550565b6000813b9050919050565b60006114e1611be2565b9050919050565b600060608390506000809050600080905060008090505b83518110156115dc57603084828151811061151657fe5b602001015160f81c60f81b60f81c60ff16101580156115525750603984828151811061153e57fe5b602001015160f81c60f81b60f81c60ff1611155b156115a457811561157557600086141561156b576115dc565b8580600190039650505b600a83029250603084828151811061158957fe5b602001015160f81c60f81b60f81c60ff1603830192506115cf565b602e8482815181106115b257fe5b602001015160f81c60f81b60f81c60ff1614156115ce57600191505b5b80806001019150506114ff565b5060008511156115ef5784600a0a820291505b81935050505092915050565b60008073ffffffffffffffffffffffffffffffffffffffff16600260009054906101000a900473ffffffffffffffffffffffffffffffffffffffff1673ffffffffffffffffffffffffffffffffffffffff16148061168357506000611681600260009054906101000a900473ffffffffffffffffffffffffffffffffffffffff166114cc565b145b156116945761169260006114d7565b505b600260009054906101000a900473ffffffffffffffffffffffffffffffffffffffff1673ffffffffffffffffffffffffffffffffffffffff166338cc48316040518163ffffffff1660e01b8152600401602060405180830381600087803b1580156116fe57600080fd5b505af1158015611712573d6000803e3d6000fd5b505050506040513d602081101561172857600080fd5b810190808051906020019092919050505073ffffffffffffffffffffffffffffffffffffffff16600160009054906101000a900473ffffffffffffffffffffffffffffffffffffffff1673ffffffffffffffffffffffffffffffffffffffff161461187357600260009054906101000a900473ffffffffffffffffffffffffffffffffffffffff1673ffffffffffffffffffffffffffffffffffffffff166338cc48316040518163ffffffff1660e01b8152600401602060405180830381600087803b1580156117f757600080fd5b505af115801561180b573d6000803e3d6000fd5b505050506040513d602081101561182157600080fd5b8101908080519060200190929190505050600160006101000a81548173ffffffffffffffffffffffffffffffffffffffff021916908373ffffffffffffffffffffffffffffffffffffffff1602179055505b6000600160009054906101000a900473ffffffffffffffffffffffffffffffffffffffff1673ffffffffffffffffffffffffffffffffffffffff1663524f3889856040518263ffffffff1660e01b81526004018080602001828103825283818151815260200191508051906020019080838360005b838110156119035780820151818401526020810190506118e8565b50505050905090810190601f1680156119305780820380516001836020036101000a031916815260200191505b5092505050602060405180830381600087803b15801561194f57600080fd5b505af1158015611963573d6000803e3d6000fd5b505050506040513d602081101561197957600080fd5b8101908080519060200190929190505050905062030d403a02670de0b6b3a7640000018111156119af576000801b915050611b4c565b60606119ba84612139565b9050600160009054906101000a900473ffffffffffffffffffffffffffffffffffffffff1673ffffffffffffffffffffffffffffffffffffffff166383eed3d5838888856040518563ffffffff1660e01b8152600401808481526020018060200180602001838103835285818151815260200191508051906020019080838360005b83811015611a57578082015181840152602081019050611a3c565b50505050905090810190601f168015611a845780820380516001836020036101000a031916815260200191505b50838103825284818151815260200191508051906020019080838360005b83811015611abd578082015181840152602081019050611aa2565b50505050905090810190601f168015611aea5780820380516001836020036101000a031916815260200191505b50955050505050506020604051808303818588803b158015611b0b57600080fd5b505af1158015611b1f573d6000803e3d6000fd5b50505050506040513d6020811015611b3657600080fd5b8101908080519060200190929190505050925050505b9392505050565b6000808211611bca576040517f08c379a000000000000000000000000000000000000000000000000000000000815260040180806020018281038252601a8152602001807f536166654d6174683a206469766973696f6e206279207a65726f00000000000081525060200191505060405180910390fd5b6000828481611bd557fe5b0490508091505092915050565b600080611c02731d3b2638a7cc9f2cb3d298a3da7a90b67e5506ed6114cc565b1115611ca457731d3b2638a7cc9f2cb3d298a3da7a90b67e5506ed600260006101000a81548173ffffffffffffffffffffffffffffffffffffffff021916908373ffffffffffffffffffffffffffffffffffffffff160217905550611c9b6040518060400160405280600b81526020017f6574685f6d61696e6e65740000000000000000000000000000000000000000008152506121b9565b60019050612136565b6000611cc373c03a2615d5efaf5f49f60b7bb6583eaec212fdf16114cc565b1115611d655773c03a2615d5efaf5f49f60b7bb6583eaec212fdf1600260006101000a81548173ffffffffffffffffffffffffffffffffffffffff021916908373ffffffffffffffffffffffffffffffffffffffff160217905550611d5c6040518060400160405280600c81526020017f6574685f726f707374656e3300000000000000000000000000000000000000008152506121b9565b60019050612136565b6000611d8473b7a07bcf2ba2f2703b24c0691b5278999c59ac7e6114cc565b1115611e265773b7a07bcf2ba2f2703b24c0691b5278999c59ac7e600260006101000a81548173ffffffffffffffffffffffffffffffffffffffff021916908373ffffffffffffffffffffffffffffffffffffffff160217905550611e1d6040518060400160405280600981526020017f6574685f6b6f76616e00000000000000000000000000000000000000000000008152506121b9565b60019050612136565b6000611e4573146500cfd35b22e4a392fe0adc06de1a1368ed486114cc565b1115611ee75773146500cfd35b22e4a392fe0adc06de1a1368ed48600260006101000a81548173ffffffffffffffffffffffffffffffffffffffff021916908373ffffffffffffffffffffffffffffffffffffffff160217905550611ede6040518060400160405280600b81526020017f6574685f72696e6b6562790000000000000000000000000000000000000000008152506121b9565b60019050612136565b6000611f0673a2998efd205fb9d4b4963afb70778d6354ad3a416114cc565b1115611fa85773a2998efd205fb9d4b4963afb70778d6354ad3a41600260006101000a81548173ffffffffffffffffffffffffffffffffffffffff021916908373ffffffffffffffffffffffffffffffffffffffff160217905550611f9f6040518060400160405280600a81526020017f6574685f676f65726c69000000000000000000000000000000000000000000008152506121b9565b60019050612136565b6000611fc7736f485c8bf6fc43ea212e93bbf8ce046c7f1cb4756114cc565b111561202b57736f485c8bf6fc43ea212e93bbf8ce046c7f1cb475600260006101000a81548173ffffffffffffffffffffffffffffffffffffffff021916908373ffffffffffffffffffffffffffffffffffffffff16021790555060019050612136565b600061204a7320e12a1f859b3feae5fb2a0a32c18f5a65555bbf6114cc565b11156120ae577320e12a1f859b3feae5fb2a0a32c18f5a65555bbf600260006101000a81548173ffffffffffffffffffffffffffffffffffffffff021916908373ffffffffffffffffffffffffffffffffffffffff16021790555060019050612136565b60006120cd7351efaf4c8b3c9afbd5ab9f4bbc82784ab6ef8faa6114cc565b1115612131577351efaf4c8b3c9afbd5ab9f4bbc82784ab6ef8faa600260006101000a81548173ffffffffffffffffffffffffffffffffffffffff021916908373ffffffffffffffffffffffffffffffffffffffff16021790555060019050612136565b600090505b90565b60606121436121d3565b61214b61255c565b612157816104006121df565b61216081612229565b60008090505b83518110156121a25761219584828151811061217e57fe5b60200260200101518361223790919063ffffffff16565b8080600101915050612166565b506121ac8161225c565b8060000151915050919050565b80600390805190602001906121cf929190612576565b5050565b60405180590338823950565b60008190506000602082816121f057fe5b0614612209576020818161220057fe5b06602003810190505b808360200181815250506040518084526000815281810160405250505050565b61223481600461226a565b50565b612244826003835161228b565b61225781836123cb90919063ffffffff16565b505050565b61226781600761226a565b50565b612287601f60058360ff16901b178361247690919063ffffffff16565b5050565b601781116122b7576122b28160058460ff16901b60ff16178461247690919063ffffffff16565b6123c6565b60ff81116122f8576122dc601860058460ff16901b178461247690919063ffffffff16565b6122f2816001856124b69092919063ffffffff16565b506123c5565b61ffff811161233a5761231e601960058460ff16901b178461247690919063ffffffff16565b612334816002856124b69092919063ffffffff16565b506123c4565b63ffffffff811161237e57612362601a60058460ff16901b178461247690919063ffffffff16565b612378816004856124b69092919063ffffffff16565b506123c3565b67ffffffffffffffff81116123c2576123aa601b60058460ff16901b178461247690919063ffffffff16565b6123c0816008856124b69092919063ffffffff16565b505b5b5b5b5b505050565b6123d361255c565b82602001518360000151518351011115612403576124028360026123fc8660200151865161251d565b02612539565b5b60008060008451905085518051602081830101945086518101825260208701935050505b6020811061244a5781518352602083019250602082019150602081039050612427565b60006001826020036101000a039050801983511681855116818117865250508694505050505092915050565b8160200151600183600001515101111561249c5761249b826002846020015102612539565b5b815180516020818301018381536001820183525050505050565b6124be61255c565b8360200151846000015151830111156124ec576124eb8460026124e587602001518661251d565b02612539565b5b60006001836101000a0390508451805184818301018684198251161781528582018352505050849150509392505050565b60008183111561252f57829050612533565b8190505b92915050565b60608260000151905061254c83836121df565b61255683826123cb565b50505050565b604051806040016040528060608152602001600081525090565b828054600181600116156101000203166002900490600052602060002090601f016020900481019282601f106125b757805160ff19168380011785556125e5565b828001600101855582156125e5579182015b828111156125e45782518255916020019190600101906125c9565b5b5090506125f291906125f6565b5090565b61261891905b808211156126145760008160009055506001016125fc565b5090565b9056fe50726f7661626c6520717565727920776173204e4f542073656e742c20706c656173652061646420736f6d652045544820746f20636f76657220666f72207468652071756572792066656521446563656e7472616c697a65642053746f72653a206d696e74696e67206661696c6564446563656e7472616c697a65642053746f72653a2077656920616d6f756e742069732030446563656e7472616c697a65642053746f72653a20696e766573746f7220697320746865207a65726f2061646472657373516d6136336773525a5636706b646d6336395248344d514b6432395072376e707a554b4d58524770546e486e4b4550726f7661626c65207175657279207761732073656e742c207374616e64696e6720627920666f722074686520616e737765722e2e2ea265627a7a72315820bb5a987bf9c36d0a34b6a2d18fa7f14e00dd2bfae7f9a7c73bde3109fa8b907664736f6c634300050c003250726f7661626c6520717565727920776173204e4f542073656e742c20706c656173652061646420736f6d652045544820746f20636f76657220666f72207468652071756572792066656521516d6136336773525a5636706b646d6336395248344d514b6432395072376e707a554b4d58524770546e486e4b45446563656e7472616c697a65642053746f72653a20746f6b656e20697320746865207a65726f206164647265737350726f7661626c65207175657279207761732073656e742c207374616e64696e6720627920666f722074686520616e737765722e2e2e",
  "source": "pragma solidity ^0.5.0;\n\nimport \"openzeppelin-solidity/contracts/math/SafeMath.sol\";\nimport \"openzeppelin-solidity/contracts/utils/ReentrancyGuard.sol\";\nimport \"./Token.sol\";\nimport \"./provableAPI.sol\";\n\ncontract DS is ReentrancyGuard, usingProvable {\n\tusing SafeMath for uint256;\n\n\tToken private _token;\n\tuint256 private _price;\n\tuint256 private _weiBurned;\n\tuint256 private _tokenAmount;\n\tuint256 private _tradeId;\n\n\tevent TokenPurchase(address investor, uint256 amountWei, uint256 amountToken, uint256 id, uint256 price, uint256 timestamp);\n\tevent EtherBurned(address investor, uint256 amountWei, uint256 timestamp);\n\n\tevent LogNewQuery(string description);\n\tevent LogNewTicket(uint256 price);\n\n\tconstructor (uint256 price, Token token) public {\n\t\trequire(price != 0);\n\t\trequire(address(token) != address(0), \"Decentralized Store: token is the zero address\");\n\n\t\t_price = price;\n\t\t_token = token;\n\n\t\tprovable_setProof(proofType_Android | proofStorage_IPFS);\n\t\tupdate();\n\t}\n\n\tfunction __callback(bytes32 _myid, string memory _result, bytes memory _proof) public {\n\t\trequire(msg.sender == provable_cbAddress());\n\t\tupdate();\n\n\t\t_price = parseInt(_result);\n\t\temit LogNewTicket(_price);\n\t}\n\n\tfunction update() public payable {\n\t\tif (provable_getPrice(\"URL\") > address(this).balance) {\n\t\t  emit LogNewQuery(\"Provable query was NOT sent, please add some ETH to cover for the query fee!\");\n\t} else {\n\t\t  emit LogNewQuery(\"Provable query was sent, standing by for the answer...\");\n\t\t\tprovable_query(100, \"computation\",[\"Qma63gsRZV6pkdmc69RH4MQKd29Pr7npzUKMXRGpTnHnKE\"]);\n\t\t}\n\t}\n\t//QmWBoconUvjkDN5wNGSXN71y7cDjq9ze3eGgRbnkR8QqDr //correct one\n\t//Qma63gsRZV6pkdmc69RH4MQKd29Pr7npzUKMXRGpTnHnKE //777\n\t//QmTGqAH6gqir17Qs7ARe1dcWWmQgSzXsZMZUCrG3Fv6WpR //1st\n\t//QmUErUgGrX7tmWeiYiWGqBCsoNwXaxWZetr4uWDyooKnNo \n\n\tfunction () external payable {\n\t}\n\n\tfunction token() public view returns (Token) {\n\t\treturn _token;\n\t}\n\n\tfunction price() public view returns (uint256) {\n\t \treturn _price;\n\t}\n\n\tfunction weiBurned() public view returns (uint256) {\n\t\treturn _weiBurned;\n\t}\n\n\tfunction tradeId() public view returns (uint256) {\n\t\treturn _tradeId;\n\t}\n\n  function buyTokens() public nonReentrant payable {\n\t\t_preValidatePurchase(msg.sender, msg.value);\n\n\t\t_tokenAmount = _getTokenAmount(msg.value);\n\n\t\t_processPurchase(msg.sender, _tokenAmount);\n\t\t_tradeId = _tradeId.add(1);\n\t\temit TokenPurchase(msg.sender, msg.value, _tokenAmount, _tradeId, _price, now);\n\n\t\t_burnEther();\n\t\temit EtherBurned(msg.sender, msg.value, now);\n  }\n\n \tfunction _preValidatePurchase(address investor, uint256 weiAmount) internal view {\n\t\trequire(investor != address(0), \"Decentralized Store: investor is the zero address\");\n\t\trequire(weiAmount != 0, \"Decentralized Store: wei amount is 0\");\n\t}\n\n\tfunction _getTokenAmount(uint256 weiAmount) internal view returns (uint256) {\n\t  return weiAmount.div(_price);\n\t}\n\n\tfunction _processPurchase(address investor, uint256 _tokenAmount) internal {\n\t\trequire(\n\t\t\tToken(address(token())).mint(investor, _tokenAmount),\n\t\t\t\"Decentralized Store: minting failed\");\n\t}\n\n\tfunction _burnEther() internal {\n\t\taddress(0).transfer(msg.value);\n\t\t_weiBurned = _weiBurned.add(msg.value);\n\t}\n}",
  "sourcePath": "/home/xternet/0/src/contracts/DS.sol",
  "compiler": {
    "name": "solc",
    "version": "0.5.12+commit.7709ece9.Emscripten.clang"
  },
  "schemaVersion": "3.0.19",
  "updatedAt": "2020-03-19T16:30:16.384Z",
  "networkType": "ethereum",
  "devdoc": {
    "methods": {
      "__callback(bytes32,string)": {
        "details": "The following `__callback` functions are just placeholders ideally     meant to be defined in child contract when proofs are used.     The function bodies simply silence compiler warnings."
      }
    }
  },
  "userdoc": {
    "methods": {}
  }
}